:020000040800F2
:10000000FCFF01203D320000852E0000852E0000FF
:10001000852E0000852E0000852E0000852E000014
:10002000852E0000852E0000852E0000852E000004
:10003000852E0000852E0000852E0000852E0000F4
:10004000852E0000852E0000852E0000852E0000E4
:10005000852E0000852E0000852E0000852E0000D4
:10006000852E0000852E0000852E0000852E0000C4
:10007000852E0000852E0000852E0000852E0000B4
:10008000852E0000852E0000852E0000852E0000A4
:10009000852E0000852E0000852E0000852E000094
:1000A000852E0000852E0000852E0000852E000084
:1000B000852E0000852E0000852E0000852E000074
:1000C000852E0000852E0000852E0000852E000064
:1000D000852E0000852E0000852E0000852E000054
:1000E000852E0000852E0000852E0000852E000044
:1000F000852E0000852E0000852E0000852E000034
:10010000852E0000852E0000852E0000852E000023
:10011000852E0000852E0000852E0000852E000013
:10012000852E0000852E0000852E0000852E000003
:10013000852E0000852E0000852E0000852E0000F3
:10014000852E0000852E0000852E0000852E0000E3
:10015000852E0000852E0000852E0000852E0000D3
:10016000852E0000852E0000852E0000852E0000C3
:10017000852E0000852E0000852E0000852E0000B3
:10018000852E0000852E000081B000F218010A685B
:10019000C2F3400181F00101C9B2C8B201B0704799
:1001A00081B000F214010A6800F21801096809041C
:1001B00042EA0101084601B07047FFFF81B00249E1
:1001C000086001B0704700BFB882404281B0024968
:1001D000086001B0704700BFBC82404281B0024954
:1001E000086001B0704700BFB082414281B002494F
:1001F000086001B0704700BFB402424281B00249BA
:10020000086001B0704700BFAC02424281B00249B1
:10021000086001B0704700BFB482404281B002491B
:10022000086001B0704700BFA882404281B0024917
:10023000086001B0704700BFAC82404281B0024903
:10024000086001B0704700BF8C02414281B0024992
:10025000086001B0704700BFB802424281B0024955
:10026000086001B0704700BFA482414281B00249DA
:10027000086001B0704700BFA082414281B00249CE
:10028000086001B0704700BF8C02404281B0024953
:10029000086001B0704700BFA802414281B0024926
:1002A000086001B0704700BFAC02414281B0024912
:1002B000086001B0704700BFB002414281B00249FE
:1002C000086001B0704700BF8802404281B0024917
:1002D000086001B0704700BF9C02424281B00249F1
:1002E000086001B0704700BFA002424281B00249DD
:1002F000086001B0704700BF9482414281B002495A
:10030000086001B0704700BFA002404281B00249BE
:10031000086001B0704700BFA402414281B00249A9
:10032000086001B0704700BFA402424281B0024998
:10033000086001B0704700BFA802424281B0024984
:10034000086001B0704700BF9882414281B0024905
:10035000086001B0704700BFBC82404281B00249D2
:10036000086001B0704700BFA082404281B00249DE
:10037000086001B0704700BF8482414281B00249E9
:10038000086001B0704700BF8802424281B0024954
:10039000086001B0704700BFB482404281B002499A
:1003A000086001B0704700BFB882404281B0024986
:1003B000086001B0704700BFAC82404281B0CDF808
:1003C00000E04FF000021F49884207D11E490B6828
:1003D0001E490A681E490A601C4617E01D498842EA
:1003E00007D11D490B681D490A6819490A601C4656
:1003F0000CE01B49884207D11A490B681A490A6860
:1004000013490A60194600E011460C4617490C6072
:1004100003461846FFF7B8FE70B91449096851B190
:100420002CB905200A4C2468A047002005E0611E75
:1004300008460446FFE7ECE70120DDF800E001B0E4
:10044000704700BF00540040680000209400002066
:1004500090000020005800406C0000209800002010
:10046000005C0040700000209C0000207400002010
:1004700081B0CDF800E00B46FFF792FE00EA0302E0
:100480009A4240F2000200D10122D0B2DDF800E031
:1004900001B0704781B00249086001B0704700BFE9
:1004A0008402404281B00249086001B0704700BF39
:1004B0008002404281B00249086001B0704700BF2D
:1004C000A882404281B00249086001B0704700BF75
:1004D0008402424281B00249086001B0704700BF07
:1004E000B882404281B00249086001B0704700BF45
:1004F000BC82404281B00249086001B0704700BF31
:10050000A482404281B00249086001B0704700BF38
:100510009802404281B00249086001B0704700BFB4
:100520009C02404281B00249086001B0704700BFA0
:10053000B482404281B00249086001B0704700BFF8
:10054000A882404281B00249086001B0704700BFF4
:10055000AC82404281B00249086001B0704700BFE0
:100560008482404281B00249086001B0704700BFF8
:100570008C82414281B00249086001B0704700BFDF
:100580008402404281B00249086001B0704700BF58
:100590008002404281B00248006801B0704700BF4D
:1005A0008C00002083B0CDF800E0044604F0FF0387
:1005B0001A09104603F00F029446220A02F00F02B5
:1005C00093461AE02D4A029229E02D4A029226E033
:1005D0002C4A029223E02C4A029220E02B4A0292FB
:1005E0001DE02B4A02921AE02A4A029217E02A4A98
:1005F000029214E0294A029211E00028E2D0012878
:10060000E3D00228E4D00328E5D00428E6D005286A
:10061000E7D00628E8D00728E9D00828EAD0012248
:1006200012B202FA0CF2ADF8042002980A46BDF8A4
:10063000041000F0D5FC029A02F22001BCF1070F71
:1006400008D90A1D1046ACF1080211460191014675
:10065000019800E0604683004FF00F029A40D343B8
:100660000A681A400A6082000BFA02F30A681A4309
:100670000A60DDF800E003B0704700BF00000240F0
:100680000004024000080240000C0240001002403A
:100690000014024000180240001C024000200240EA
:1006A00083B0CDF800E003464FF000002B498B42A9
:1006B00006D12B490C682B490A682B490A6015E0C2
:1006C0002A498B4207D12A4908682A490A682649DB
:1006D0000A6004460AE028498B4206D12749086887
:1006E00027490A6820490A60FFE7044625490C604B
:1006F000019402931846FFF761FE029B019C10B91A
:100700004FF6FF7025E00122196862F30821196095
:1007100003F214010A68C2F3402111B14FF6FF70D1
:1007200017E025461C4618492046FFF7A1FE78B978
:100730001449096859B135B906200B4C2468A04703
:100740004FF6FF7005E0691E08460546FFE7EAE739
:100750000020DDF800E003B0704700BF0054004007
:100760006800002094000020900000200058004005
:100770006C00002098000020005C00407000002009
:100780009C000020740000200100030083B0CDF81D
:1007900000E00024A10041180968B1F1FF3F14D026
:1007A00000F23401A300C91809680A46C118096893
:1007B0000190ADF8084008461146FFF7F3FEBDF87A
:1007C00008400198641CA4B2E4E7DDF800E003B03F
:1007D0007047FFFF81B00168C1F3801001B070471E
:1007E00081B00168C1F3401001B0704781B0026868
:1007F000C2F3401101B9FAE7011D096888B201B0DE
:100800007047FFFF82B0CDF800E0029E4FF0000578
:100810005C4CA04206D15C4C27685C4C25685C4C63
:10082000256016E05B4CA04206D15B4C27685B4C10
:100830002568574C25600CE0594CA04207D1594C13
:100840002768594C2568524C25603C4600E02C46F0
:100850002746564C276000F210054C00A4B22C60CD
:10086000B9460746904635461E4651493846FFF779
:10087000FFFD88B94D4C24686CB1B9F1000F06D169
:100880000420434C2468A0474FF6FF7076E0A9F19E
:1008900001008146FFE7E8E7002001972946374637
:1008A000019E7C1EA04226D206F2100508EB000431
:1008B00024782C603D4CD4F8009082460D463D498A
:1008C0003046FFF7D5FD88B9384C24686CB1B9F1D2
:1008D000000F06D104202E4C2468A0474FF6FF706D
:1008E0004CE0A9F101008146FFE7E8E70AF10104C5
:1008F00020462946D5E706F2100508EB00042478C7
:100900002C602A4C27680D462B493046FFF7B0FD76
:1009100070B9264C246854B137B904201C4C2468A3
:10092000A0474FF6FF7029E0781E0746FFE7EBE788
:10093000012D05D10125346865F3492434601CE09C
:100940000125346865F308243460184C276835465F
:100950001A492846FFF78CFD78B9144C24685CB11D
:1009600037B904200A4C2468A0474FF6FF7005E011
:100970007C1E20460746FFE7EAE70020DDF800E09E
:1009800002B070470054004068000020940000202E
:1009900090000020005800406C00002098000020CB
:1009A000005C0040700000209C00002074000020CB
:1009B0008200070080000700840007000100030098
:1009C00082B0CDF800E0CFB201469846029B4FF0CE
:1009D00000064FF00005BF4CA14207D1BE4CD4F831
:1009E0000090BE4C2568BE4C256016E0BD4CA1426F
:1009F00007D1BD4C2068BD4C2568B94C25608146A7
:100A00000BE0BB4CA14206D1BA4C2068BA4C256819
:100A1000B34C256000E028468146B84CC4F80090ED
:100A2000F9E101F210057C00A4B244F00104A4B283
:100A30002C60019616464F46019A01F2140425686F
:100A4000C5F3400464B9AD4C246844B127B9032010
:100A5000A34C2468A047E7E1781E0746FFE7ECE7D0
:100A600000250C6865F38A240C6001F214042068E8
:100A700000BF01F218042468240440EA040420465C
:100A8000012B05D101250C6865F349240C6004E0B5
:100A900001250C6865F308240C60984C2568914684
:100AA000984637460E4696493046FFF7E1FC68B94E
:100AB000924C24684CB125B90320894C2468A04786
:100AC000B2E16C1E20460546FFE7ECE707EB09059F
:100AD00006F2100424682C70B8F1010F13D1874C72
:100AE000216830460568C5F340245CB9834C24680E
:100AF0003CB121B903207A4C2468A04794E1491EF7
:100B0000FFE7EFE712E07D4C216830460568C5F34A
:100B100000245CB9794C24683CB121B90320704CA5
:100B20002468A04780E1491EFFE7EFE77CE101254B
:100B30000C6865F38A240C6001250C6865F3CB24EE
:100B40000C6001F210057C00A4B244F00104A4B2D0
:100B50002C604F4601F214042568C5F3400464B9C3
:100B6000664C246844B127B903205D4C2468A04733
:100B70005AE1781E0746FFE7ECE701F2140420680B
:100B800000BF01F2180424682404204300250C68E7
:100B900065F38A240C60594C276801F21404256817
:100BA000C5F3800464B9554C246844B127B90320C7
:100BB0004B4C2468A04737E1781E0746FFE7ECE777
:100BC000012B05D101250C6865F349240C6004E074
:100BD00001250C6865F308240C60951901F21004D6
:100BE00024682C70741C151901F2100424682C70F0
:100BF000012B14D1414C22680D68C5F3402464B91F
:100C00003E4C246844B122B90320354C2468A047E7
:100C10000AE1501E0246FFE7EEE7084613E0374CB4
:100C200022680D68C5F3002464B9344C246844B1CB
:100C300022B903202A4C2468A047F5E0501E024642
:100C4000FFE7EEE708460025046865F3CB2404605F
:100C5000EAE001250C6865F38A240C6001F21005B6
:100C60007C00A4B244F00104A4B22C604646C846FD
:100C7000894617461D4623494846FFF7F9FB78B9D0
:100C80001E4C24685CB1B8F1000F04D10320144C51
:100C90002468A047C8E0A8F101008046FFE7EAE722
:100CA0000021A8464A46B1463B46A9F10304A142A9
:100CB0003DD2124C25688A4617461E4610493846D2
:100CC000FFF7D6FB38BB0D4C24681CB3FDB90320DD
:100CD000034C19E0005400406800002094000020FC
:100CE00090000020005800406C0000209800002078
:100CF000005C0040700000209C0000207400002078
:100D000040000300020003002468A0478CE0681E36
:100D10000546FFE7D2E706EB0A0507F21004246850
:100D20002C700AF10104214633463A46BDE7404C97
:100D3000276801930B4616464246019906F21404B1
:100D40002568C5F3800464B9394C246844B127B9D7
:100D50000320384C2468A04766E0781E0746FFE76A
:100D6000ECE70025346865F38A243460CD1806F278
:100D7000100424682C70581C2D4C2368174602461A
:100D800006F214042568C5F3800464B9284C24686D
:100D900044B123B90320274C2468A04744E0581EDF
:100DA0000346FFE7ECE7012F07D10125346865F31F
:100DB000492434601046324621E00125346865F349
:100DC000082434601A4CD4F8008017460D461A499E
:100DD0003046FFF74DFB78B9154C24685CB1B8F18B
:100DE000000F04D10320134C2468A0471CE0A8F195
:100DF00001008046FFE7EAE72946324638460D18EB
:100E000002F2100424682C70441C0D1902F2100424
:100E100024682C7008E0B8F1010F3FF402AEB8F17D
:100E2000020F3FF484AE14E7DDF800E002B0704733
:100E300074000020900000200100030082B0CDF873
:100E400000E0034619460191FFF7A4FB40F2E831A8
:100E500000FB01F201990A601749096801F0F001ED
:100E60000A09164989180878C0B21A1D1968C140C4
:100E700011601149096801F4E0518A0A0F49891883
:100E80000878C0B203F20802191D0968C140116058
:100E90000949096801F460414A0B08498918097831
:100EA000C8B203F20C02191D0968C1401160DDF8D7
:100EB00000E002B0704700BF083802407800002010
:100EC00081B01E4900EA01010846002212E001201B
:100ED0002CE002202AE0042028E0082026E0102050
:100EE00024E0202022E0402020E080201EE040F28C
:100EF00000101BE012498842E9D012498842E8D02C
:100F000011498842E7D011498842E6D01049884209
:100F1000E5D010498842E4D00F498842E3D00F4918
:100F20008842E2D00E498842E1D010460D49096856
:100F300041EA00020B490A6001B0704700FCFFFF64
:100F4000000002400004024000080240000C024081
:100F5000001002400014024000180240001C024031
:100F6000002002403038024081B0CDF800E0034854
:100F7000FFF730FCDDF800E001B0704700100140E1
:100F800081B0CDF800E00348FFF724FCDDF800E075
:100F900001B070470044004081B0CDF800E0034844
:100FA000FFF724FCDDF800E001B07047004400408A
:100FB00081B0CDF800E00348FFF712FCDDF800E057
:100FC00001B070470044004081B0CDF800E0034814
:100FD000FFF766FBDDF800E001B070470058004005
:100FE00084B0CDF800E08DB21646864B00EA0303CC
:100FF0001F461846FFF764FFB5F1FF0F20D13C688C
:10100000814B04EA03031846804B9E4214D145F2FB
:10101000555340EA03033B603D1D2C686FF0FF030E
:1010200004EA03032B6007F208052C684FF6FF73F0
:1010300044EA03032B60E1E0422E01D13860DDE099
:101040004FF6FF739D4213D1704B9E420BD14FF070
:1010500055333B603C1D0023236007F208044FF02A
:10106000FF332360CAE0422E02D100233B60C5E07B
:1010700006F001030BB103200AE006F008030BB1F0
:10108000022005E006F004030BB1012000E000207F
:1010900006F401230BB103210AE006F400630BB14F
:1010A000022105E006F480630BB1012100E000217C
:1010B00006F020030BB1012200E0002206F4807349
:1010C0000BB1022305E006F080030BB1012300E021
:1010D000002340F2000A01921FFA85F9B046064645
:1010E00018460A460199BAF1100F80F087804FF038
:1010F000010303FA0AF409EA0403A34240F07B80E7
:101100004FEA4A044FF00303A340DC433B6823400B
:101110003B604FEA4A0306FA03F43B6823433B6013
:1011200008F00C033BB307F208054FEA4A044FF0FE
:101130000303A340DC432B6823402B6007F2080520
:101140004FEA4A0302FA03F42B6823432B603D1D48
:101150001FFA8AF44FF00103A340DC432B682340BD
:101160002B603D1D1FFA8AF48BB203FA04F4A4B27B
:101170002B6823432B6007F20C051FFA8AF35C00EF
:10118000A4B24FF00303A340DC432B6823402B6041
:1011900007F20C054FEA4A0300FA03F42B682343D5
:1011A0002B6008F0080333B308F470031B0D8DF8AF
:1011B0000C30BAF1070F05D907F224030293AAF104
:1011C000080503E007F2200302935546AC004FF0F8
:1011D0000F03A340DC43029B1B6803EA0404029B49
:1011E0001C609DF80C40AB009C40029B1B6843EACE
:1011F0000404029B1C600AF1010A74E7DDF800E0B8
:1012000004B0704700FCFFFF0000FFFF140008005F
:1012100081B0CDF800E00348FFF742FADDF800E0C6
:1012200001B07047005C004081B0CDF800E0034899
:10123000FFF7D6FADDF800E001B07047001001407A
:1012400081B0CDF800E00348FFF7D0FADDF800E008
:1012500001B070470010014081B0CDF800E00348B4
:10126000FFF7C4FADDF800E001B070470048004025
:1012700081B0CDF800E008B413460A46C1B2044874
:10128000FFF7C0FA01B0DDF800E001B0704700BF21
:101290000054004081B0CDF800E008B413460A467F
:1012A000C1B20448FFF7AEFA01B0DDF800E001B0CA
:1012B000704700BF0058004081B0CDF800E00348FF
:1012C000FFF78EFADDF800E001B07047001401402E
:1012D00081B0CDF800E00348FFF77CFADDF800E0CC
:1012E00001B070470014014081B0CDF800E008B4AF
:1012F00013460A46C1B20448FFF762FB01B0DDF8AD
:1013000000E001B0704700BF0058004081B0CDF848
:1013100000E008B413460A46C1B20448FFF750FB88
:1013200001B0DDF800E001B0704700BF005C004094
:1013300081B0CDF800E008B413460A46C1B20448B3
:10134000FFF760FA01B0DDF800E001B0704700BFC0
:10135000005C004081B0CDF800E008B413460A46B6
:10136000C1B20448FFF72CFB01B0DDF800E001B08A
:10137000704700BF0054004081B0CDF800E0034842
:10138000FFF734FADDF800E001B0704700140140C7
:1013900081B0CDF800E00348FFF728FADDF800E05F
:1013A00001B07047004C004081B0CDF800E0034828
:1013B000FFF716FADDF800E001B07047004C00407E
:1013C00081B0CDF800E00348FFF70AFADDF800E04D
:1013D00001B070470048004081B0CDF800E00348FC
:1013E000FFF7F8F9DDF800E001B070470048004071
:1013F00081B0CDF800E00348FFF7F2F9DDF800E036
:1014000001B070470050004081B0CDF800E00348C3
:10141000FFF7E0F9DDF800E001B070470050004050
:1014200081B0CDF800E00348FFF7D4F9DDF800E023
:1014300001B07047004C004081B0CDF800E0034897
:10144000FFF7D4F9DDF800E001B07047005000402C
:1014500081B0CDF800E00348FFF722F9DDF800E0A5
:1014600001B070470054004088B0CDF800E00E464F
:101470005E4B98420DD1012464B25D4B1C605D4C03
:101480005D4B1C605D4C5E4B1C605E4C5E4B1C609B
:1014900020E05E4B98420DD1012464B25C4B1C608D
:1014A0005C4C554B1C605C4C554B1C605B4C564B6C
:1014B0001C600FE05A4B98420CD1012464B2594B86
:1014C0001C60594C4C4B1C60584C4D4B1C60584C8C
:1014D0004D4B1C60019602901046FFF757F9029899
:1014E000019E031D1B689CB26FF03F0304EA0303D7
:1014F0009DB203AB01901846FFF7A0FC0198059F31
:10150000059C4C4BB4FBF3F399B29BB245EA030440
:10151000A4B2031D1C600024036864F3000303608D
:101520000022454B9E4212D87300B7FBF3F4A4B2DD
:10153000042C02D204231C46FFE742EA04039AB2B9
:1015400000F220044B1C9BB2236091B23FE00323C6
:1015500006FB03F4B7FBF4F31FFA83F8192306FB29
:1015600003F5B7FBF5F31FFA83F908FB04F409FB55
:1015700005F33C1BFB1A9C4205D203237343B7FBC4
:10158000F3F4A4B206E019237343B7FBF3F4A4B257
:1015900044F4804440F6FF7304EA030313B944F0B3
:1015A0000104FFE744F400439BB21A4392B200F2F5
:1015B000200540F22C1301FB03F4A4B240F2E833FF
:1015C000B4FBF3F39BB25B1C9BB22B6091B200F2B5
:1015D0001C031960002303600124036864F3000303
:1015E0000360DDF800E008B0704700BF0054004021
:1015F0005408474251140000A00000205513000079
:10160000A400002071120000A80000200058004033
:1016100058084742C90F0000E91200009512000067
:10162000005C00405C084742111200000D130000EE
:101630003113000040420F00A08601008BB0CDF8AE
:1016400000E09AB2BDF82C300C9E06ACADF8043028
:10165000ADF80820039104902046FFF7EFFB0498B3
:101660000399BDF80820BDF80430714CA04212D196
:1016700001256DB26F4C25606F4D704C2560704D2B
:10168000704C2560704D714C2560714D714C25601A
:10169000099C05946CE0704CA04212D101256DB2FA
:1016A0006E4C25606E4D654C25606E4D654C256019
:1016B0006D4D664C25606D4D664C2560089C05940B
:1016C00056E06B4CA04212D101256DB2694C2560E9
:1016D000694D5A4C2560694D5A4C2560684D5B4CEC
:1016E0002560684D5B4C2560089C059440E0664C85
:1016F000A04212D101256DB2644C2560644D4F4C5F
:101700002560644D4F4C2560634D504C2560634D02
:10171000504C2560089C05942AE0614CA04212D1EF
:1017200001256DB25F4C25605F4D444C25605F4DD7
:10173000444C25605E4D454C25605E4D454C256012
:10174000089C059414E05C4CA04211D101256DB2B7
:101750005A4C25605A4D394C25605A4D394C2560FC
:10176000594D3A4C2560594D3A4C2560099C0594D9
:10177000ADF80430ADF80820039104903046FFF72F
:1017800005F804980399BDF80820BDF8043000F26C
:10179000100500242C6000F210052C681C432C60FE
:1017A00000F20C0500242C601AB142F4806292B25F
:1017B000FFE700F20C052C6814432C6000F20C06C5
:1017C0000125346865F34D34346000F20C060125C0
:1017D000346865F3C304346000F20C0601253468F4
:1017E00065F38204346000F2140500242C60059D2A
:1017F000192465438C00B5FBF4F76424B7FBF4F4BB
:101800002601350964246C433C1B240104F2320593
:101810006424B5FBF4F404F00F0446EA040400F277
:101820000805A4B22C60DDF800E00BB0704700BFE3
:101830000010014090084742D9190000B000002074
:1018400041120000B400002029120000B80000205E
:10185000690F0000BC0000200044004044084742DB
:101860002D1A0000990F0000B10F0000810F000039
:101870000048004048084742B11A000059120000D1
:10188000C1130000D9130000004C00404C0847422F
:101890000D19000091130000A9130000211400008D
:1018A0000050004050084742291900003914000038
:1018B000F11300000914000000140140940847428D
:1018C000F118000079130000B9120000D1120000D5
:1018D00081B0ADF800100146BDF800000B68C3F3FD
:1018E000C01202B9FAE70A1D106001B07047FFFF8D
:1018F00081B0CDF800E081B20348FFF7E9FFDDF8E1
:1019000000E001B0704700BF0014014081B0CDF885
:1019100000E081B20348FFF7DBFFDDF800E001B033
:10192000704700BF004C004081B0CDF800E081B2AC
:101930000348FFF7CDFFDDF800E001B0704700BFBE
:101940000050004081B0CDF800E0019D2C4610B45D
:1019500008B493B28AB201460348FFF76FFE02B0A3
:10196000DDF800E001B070470048004081B0CDF8DC
:1019700000E0019D2C4610B408B493B28AB201462F
:101980000348FFF75BFE02B0DDF800E001B07047EE
:101990000044004081B0CDF800E00A46014603480B
:1019A000FFF762FDDDF800E001B07047005800402D
:1019B00081B0CDF800E0019D2C4610B408B493B27C
:1019C0008AB201460348FFF739FE02B0DDF800E0B5
:1019D00001B07047004C004081B0CDF800E081B20A
:1019E0000348FFF775FFDDF800E001B0704700BF66
:1019F0000010014081B0CDF800E00A4601460348DE
:101A0000FFF732FDDDF800E001B07047005C0040F8
:101A100081B0CDF800E0044A89B2FFF7E1FADDF8C1
:101A200000E001B0704700BF1400080081B0CDF89D
:101A300000E081B20348FFF74BFFDDF800E001B0A2
:101A4000704700BF0044004082B0CDF800E040F293
:101A50000004ADF80440064C2468A047BDF904100A
:101A600041EA000000B2DDF800E002B0704700BFBC
:101A7000C000002081B0CDF800E04FF0420289B2F2
:101A8000FFF7AEFADDF800E001B0704782B0CDF8A4
:101A900000E040F20004ADF80440044C2468A04784
:101AA000BDF90400DDF800E002B07047D00000206E
:101AB00081B0CDF800E081B20348FFF709FFDDF8FF
:101AC00000E001B0704700BF0048004082B0CDF890
:101AD00000E040F20004ADF80440054C2468A04743
:101AE000BDF90440044320B2DDF800E002B07047C5
:101AF000CC00002081B00248006801B0704700BFF0
:101B00003C82404281B00248006801B0704700BF8B
:101B10003882404281B00248006801B0704700BF7F
:101B20003482404281B00248006801B0704700BF73
:101B30001C02404281B00248006801B0704700BFFB
:101B40003882404281B00248006801B0704700BF4F
:101B50003C82404281B00248006801B0704700BF3B
:101B60003082414281B00248006801B0704700BF36
:101B70003402424281B00248006801B0704700BFA1
:101B80002C02424281B00248006801B0704700BF99
:101B90003482404281B00248006801B0704700BF03
:101BA0003802424281B00248006801B0704700BF6D
:101BB0002C82404281B00248006801B0704700BFEB
:101BC0000C02414281B00248006801B0704700BF7A
:101BD0001802404281B00248006801B0704700BF5F
:101BE0002482414281B00248006801B0704700BFC2
:101BF0002082414281B00248006801B0704700BFB6
:101C00002882404281B00248006801B0704700BF9E
:101C10000402404281B00248006801B0704700BF32
:101C20000002404281B00248006801B0704700BF26
:101C30000482414281B00248006801B0704700BF91
:101C40003C82404281B00248006801B0704700BF4A
:101C50002082404281B00248006801B0704700BF56
:101C60002882404281B082B2110AD0B2C9B201F0DA
:101C70001F01C9B2CAB201F01001C9B2D9B102F054
:101C80000F01C9B200EE901AF8EE600AB3EE000A36
:101C900020EE801A00EE900AF8EE600AB3EE000A19
:101CA00080EE800A71EE000A4FF0874100EE101AB4
:101CB00030EE600A15E000EE902AF8EE600AB3EE0E
:101CC000000A20EE801A00EE900AF8EE600AB3EEE9
:101CD000000A80EE800A31EE000AF0EE400AB0EE13
:101CE000600A01B07047FFFF81B000910146009883
:101CF0000B461C465A1C15460346421C10461A78D1
:101D0000227022780AB12B46F3E7084601B07047EB
:101D100082B0CDF800E001AA1070521C1170FFF7DC
:101D200093FE01AB054A127819460123D0B2022274
:101D3000FFF7CCFEDDF800E002B07047670000203E
:101D400081B00248006801B0704700BF2C82404259
:101D500082B0CDF800E001A90870FFF775FE01AA76
:101D60000E4909780023C8B211460122FFF7AEFEE2
:101D700001AA0A4909780123C8B211460222FFF7D5
:101D800085FE01AB19780A0292B2591C097842EA21
:101D9000010188B2DDF800E002B070476700002062
:101DA00081B00248006801B0704700BF00024042A5
:101DB00081B00248006801B0704700BF28824042ED
:101DC00081B00248006801B0704700BF0402404281
:101DD00081B00248006801B0704700BF24824042D1
:101DE00081B00248006801B0704700BF0C824142D8
:101DF00081B00248006801B0704700BF2C824042A9
:101E000081B00248006801B0704700BF3482404290
:101E100081B00248006801B0704700BF388240427C
:101E200081B00248006801B0704700BF080242421A
:101E300081B00248006801B0704700BF0482404290
:101E400081B00248006801B0704700BF04024242FE
:101E500081B00248006801B0704700BF0C024042E8
:101E600081B0CDF800E0094902B440F2000340F22D
:101E7000000240F20001FFF79BFD01B0044A054952
:101E80000A600020DDF800E001B07047A8330000D0
:101E90000D1900008800002081B0CDF800E009494C
:101EA00002B440F2000340F2000240F20001FFF7EA
:101EB00049FD01B0044A05490A600020DDF800E050
:101EC00001B0704714340000B11A000088000020EF
:101ED00081B0CDF800E0094902B440F2000340F2BD
:101EE000000240F20001FFF741FD01B0044A05493C
:101EF0000A600020DDF800E001B0704764320000A5
:101F00002D1A00008800002081B0CDF800E00949BA
:101F100002B440F2000340F2000240F20001FFF779
:101F200047FD01B0044A05490A600020DDF800E0E1
:101F300001B07047A83300000D1900008800002090
:101F400081B0CDF800E00178CCB2A0B2034C246897
:101F5000A0470020DDF800E001B0704788000020B5
:101F600081B000F230011C310A6802490A6001B0F8
:101F7000704700BFC800002081B0026806490A60AF
:101F8000011D0A6805490A6000F208010A6804494F
:101F90000A6001B0704700BFC0000020CC000020E4
:101FA000D000002081B0CDF800E001680846044967
:101FB000FFF7F0FC0020DDF800E001B0704700BF43
:101FC0003C33000081B0CDF800E0A9E0012905D143
:101FD00040F208016548FFF74DFD04E040F20801BA
:101FE0006248FFF715FDBBE0012905D142F200016F
:101FF0005F48FFF73FFD04E042F200015C48FFF755
:1020000007FDADE0012905D140F600015848FFF772
:1020100031FD04E040F600015548FFF7F9FC9FE070
:10202000012905D142F200015248FFF723FD04E0E7
:1020300042F200014F48FFF7EBFC91E0012905D186
:1020400044F200014B48FFF715FD04E044F20001A3
:102050004848FFF7DDFC83E0012905D148F2000183
:102060004448FFF707FD04E048F200014148FFF74C
:10207000CFFC75E0012905D141F200013E48FFF790
:10208000F9FC04E041F200013B48FFF7C1FC67E0C6
:10209000012905D144F200013548FFF7EBFC04E0CB
:1020A00044F200013248FFF7B3FC59E0012905D1A1
:1020B00040F200213048FFF7DDFC04E040F200214F
:1020C0002D48FFF7A5FC4BE0012905D140F2001196
:1020D0002948FFF7CFFC04E040F200112648FFF743
:1020E00097FC3DE0012905D140F200412148FFF76E
:1020F000C1FC04E040F200411E48FFF789FC2FE0DC
:10210000012905D140F600011A48FFF7B3FC04E0AD
:1021100040F600011748FFF77BFC21E0012020E09A
:1021200000283FF453AF01283FF45EAF02283FF48C
:1021300069AF03283FF474AF04283FF47FAF05284C
:102140003FF48AAF06283FF495AF0728A0D00828AF
:10215000ACD00928B8D00A28C4D00B28D0D0DDE7ED
:102160000020DDF800E001B0704700BF0000024031
:102170000010024000040240000C024081B0CDF883
:1021800000E0A9E0012905D140F208016548FFF708
:1021900071FC04E040F208016248FFF739FCBBE043
:1021A000012905D140F240015F48FFF763FC04E0DC
:1021B00040F240015C48FFF72BFCADE0012905D15E
:1021C00040F280015848FFF755FC04E040F28001DE
:1021D0005548FFF71DFC9FE0012905D142F200019F
:1021E0005248FFF747FC04E042F200014F48FFF776
:1021F0000FFC91E0012905D144F200014B48FFF7A3
:1022000039FC04E044F200014848FFF701FC83E098
:10221000012905D148F200014448FFF72BFC04E0F6
:1022200048F200014148FFF7F3FB75E0012905D1B1
:1022300040F200213D48FFF71DFC04E040F2002180
:102240003A48FFF7E5FB67E0012905D140F20801B4
:102250003748FFF70FFC04E040F208013448FFF76D
:10226000D7FB59E0012905D140F202012E48FFF7C2
:1022700001FC04E040F202012B48FFF7C9FB4BE0F0
:10228000012905D140F201012748FFF7F3FB04E0E3
:1022900040F201012448FFF7BBFB3DE0012905D1D5
:1022A00040F200412148FFF7E5FB04E040F2004125
:1022B0001E48FFF7ADFB2FE0012905D140F60001D4
:1022C0001A48FFF7D7FB04E040F600011748FFF774
:1022D0009FFB21E0012020E000283FF453AF0128BC
:1022E0003FF45EAF02283FF469AF03283FF474AFB8
:1022F00004283FF47FAF05283FF48AAF06283FF457
:1023000095AF0728A0D00828ACD00928B8D00A2853
:10231000C4D00B28D0D0DDE70020DDF800E001B00C
:10232000704700BF00080240000002400004024065
:10233000000C024081B0CDF800E0A9E0012905D1F0
:1023400040F202016548FFF795FB04E040F202010C
:102350006248FFF75DFBBBE0012905D140F20201B5
:102360005F48FFF787FB04E040F202015C48FFF79B
:102370004FFBADE0012905D140F204015848FFF7B9
:1023800079FB04E040F204015548FFF741FB9FE070
:10239000012905D142F200015048FFF76BFB04E030
:1023A00042F200014D48FFF733FB91E0012905D1CE
:1023B00044F200014948FFF75DFB04E044F20001EC
:1023C0004648FFF725FB83E0012905D148F20001CB
:1023D0004248FFF74FFB04E048F200013F48FFF797
:1023E00017FB75E0012905D140F200113B48FFF7CA
:1023F00041FB04E040F200113848FFF709FB67E0B9
:10240000012905D140F202013648FFF733FB04E011
:1024100040F202013348FFF7FBFA59E0012905D1E8
:1024200040F202013048FFF725FB04E040F20201D0
:102430002D48FFF7EDFA4BE0012905D140F20101EB
:102440002948FFF717FB04E040F201012648FFF797
:10245000DFFA3DE0012905D140F200411F48FFF7B6
:1024600009FB04E040F200411C48FFF7D1FA2FE0DD
:10247000012905D140F600011848FFF7FBFA04E0F6
:1024800040F600011548FFF7C3FA21E0012020E0E3
:1024900000283FF453AF01283FF45EAF02283FF419
:1024A00069AF03283FF474AF04283FF47FAF0528D9
:1024B0003FF48AAF06283FF495AF0728A0D008283C
:1024C000ACD00928B8D00A28C4D00B28D0D0DDE77A
:1024D0000020DDF800E001B0704700BF00040240BA
:1024E00000100240000C02400000024081B0CDF814
:1024F00000E0016808460449FFF77CFA0020DDF897
:1025000000E001B0704700BFD032000081B0CDF8CC
:1025100000E0016808460449FFF73CFA0020DDF8B6
:1025200000E001B0704700BF3C33000081B0CDF83F
:1025300000E0016808460449FFF72CFA0020DDF8A6
:1025400000E001B0704700BF3C33000081B0CDF81F
:1025500000E0A9E0012905D140F204016548FFF738
:1025600089FA04E040F204016248FFF751FABBE047
:10257000012905D140F280015F48FFF77BFA04E0B2
:1025800040F280015C48FFF743FAADE0012905D134
:1025900040F200115848FFF76DFA04E040F20011D4
:1025A0005548FFF735FA9FE0012905D140F2004177
:1025B0005248FFF75FFA04E040F200414F48FFF74E
:1025C00027FA91E0012905D140F600014B48FFF7B9
:1025D00051FA04E040F600014848FFF719FA83E099
:1025E000012905D141F200014448FFF743FA04E014
:1025F00041F200014148FFF70BFA75E0012905D1CE
:1026000040F200213C48FFF735FA04E040F2002197
:102610003948FFF7FDF967E0012905D140F2004193
:102620003548FFF727FA04E040F200413248FFF74F
:10263000EFF959E0012905D140F240013048FFF798
:1026400019FA04E040F240012D48FFF7E1F94BE0B0
:10265000012905D140F220012948FFF70BFA04E0D7
:1026600040F220012648FFF7D3F93DE0012905D1CA
:1026700040F200111F48FFF7FDF904E040F200119D
:102680001C48FFF7C5F92FE0012905D140F20021D0
:102690001A48FFF7EFF904E040F200211748FFF76E
:1026A000B7F921E0012020E000283FF453AF0128D2
:1026B0003FF45EAF02283FF469AF03283FF474AFE4
:1026C00004283FF47FAF05283FF48AAF06283FF483
:1026D00095AF0728A0D00828ACD00928B8D00A2880
:1026E000C4D00B28D0D0DDE70020DDF800E001B039
:1026F000704700BF00000240001002400008024086
:10270000000C024082B0CDF800E001AC2070631CE8
:102710000A0A92B202F0FF02D2B21A70A31C01F0B0
:10272000FF02D2B21A70FFF78FF901AB054A127897
:1027300019460123D0B20322FFF7C8F9DDF800E003
:1027400002B070476700002081B00248006801B005
:10275000704700BF3002414281B00248006801B0BA
:10276000704700BF2402424281B00248006801B0B5
:10277000704700BF2802414281B00248006801B0A2
:10278000704700BF2C02414281B00248006801B08E
:10279000704700BF2402414281B00248006801B086
:1027A000704700BF1882414281B00248006801B002
:1027B000704700BF1482414281B00248006801B0F6
:1027C000704700BF2002404281B00248006801B05B
:1027D000704700BF2802424281B00248006801B041
:1027E000704700BF2002424281B00248006801B039
:1027F000704700BF0802404281B00248006801B043
:10280000704700BF1C02424283B0CDF800E0024690
:1028100010460D228DF808200A228DF809201FE0AD
:10282000FFF78EFB23E002782AB10190FFF788FBC7
:102830000198401CF7E71AE002782AB10190FFF7EF
:102840007FFB0198401CF7E702AA1046FFF778FBD0
:102850000DF109021046FFF773FB08E0062007E0C0
:102860000029DDD00129DED00229E5D0F6E70020DD
:10287000DDF800E003B0704781B0CDF800E05FFA0A
:1028800081FB5FFA82FC1DE05FFA8CF15FFA8BF04E
:10289000FFF75CFE1FE05FFA8CF15FFA8BF0FFF749
:1028A00091FB18E05FFA8CF15FFA8BF0FFF766FCA2
:1028B00011E05FFA8CF15FFA8BF0FFF73BFD0AE065
:1028C000012008E00028DFD00128E4D00228E9D068
:1028D0000328EED0F4E7DDF800E001B07047FFFF19
:1028E00081B0CDF800E00520FFF732FA03490880F7
:1028F000FFF7B8F9DDF800E001B07047C400002030
:1029000081B0CDF800E0F0EE400AB3EE000A20EE10
:10291000800ABCEE400A10EE101A89B28AB201F0A9
:10292000030189B219B1511C8AB291B200E091B28F
:10293000FFF7E8FEDDF800E001B0704781B0CDF8A8
:1029400000E0CBB2192100F00300C0B2012B03D18B
:1029500041F0040189B203E04FF6FB72114089B2E5
:10296000420292B241EA020291B20120FFF7CAFE8E
:10297000DDF800E001B0704781B0CDF800E0C1B2F1
:102980000820FFF7C5F9DDF800E001B07047FFFF50
:1029900081B0CDF800E00446054B1A700846FFF7F9
:1029A000EBFA2046FFF7DCFADDF800E001B07047F3
:1029B0006700002081B0CDF800E011E00846FFF785
:1029C00095FD16E00846FFF7B1FD12E00846FFF757
:1029D0009DFD0EE00846FFF7E5FA0AE0012008E059
:1029E0000028EBD00128EDD00228EFD00328F1D049
:1029F000F4E7DDF800E001B07047FFFF81B0CDF8EB
:102A000000E011E00846FFF763FA16E00846FFF71A
:102A100043FA12E00846FFF723FA0EE00846FFF7F4
:102A200073FA0AE0012008E00028EBD00128EDD07D
:102A30000228EFD00328F1D0F4E7DDF800E001B080
:102A40007047FFFF83B0CDF800E00446002000236C
:102A50005BB28DED020A0299B1F1FF3F05D17049D9
:102A60002046FFF741F90320D5E0012502A9C91C42
:102A7000097801F08001C9B269B102A9CA1C1178B4
:102A800081F080011170691CCAB22D212170641C73
:102A9000D7B2264601E02646EFB2029929B961492C
:102AA0003046FFF721F90020B5E00299B1F1FF4F60
:102AB00005D15D493046FFF717F9F8B2ABE08DF864
:102AC0000430C3B234469DF90400DDED020AB7EECE
:102AD000000AF4EEC00AF1EE10FA0ADADDED020A9D
:102AE000B2EE040A20EE800A8DED020A401E40B2CA
:102AF000EBE7DDED020AB2EE040AF4EEC00AF1EEF5
:102B000010FA0BDBDDED020A484900EE101A20EE48
:102B1000800A8DED020A401C40B2EAE702994900A2
:102B2000029102A9C91C09787F39CDB202A9CA1C39
:102B3000012111700299A940029102A9C91C0978CA
:102B400030312170621C012803DB062801DC1546A8
:102B500003E02E211170551C0123062144B2C8B296
:102B600010B302A9CA1C0021117002998A000299AF
:102B70008918029102994900029102A9C91C097899
:102B8000303129706D1C63B9611E49B24AB221B956
:102B90002E2129706D1C012100E0D9B254B2CBB2B4
:102BA000FFE7401EC0B2DBE72A4660B2511E09783B
:102BB000302901D1521EF9E7511E09782E2901D181
:102BC000521EFFE718B365211170521C002806DA67
:102BD0002D211170521C414248B243B200E043B271
:102BE000D8B2D9B2092907D90A21B0FBF1F1C9B28B
:102BF00030311170531C00E013460A22B0FBF2F191
:102C000002FB1101C9B230311970581C00E01046A6
:102C1000002101700020DDF800E003B0704700BF24
:102C20005D0000206100002063000020CDCCCC3D81
:102C300081B0CDF800E0034C2468A047DDF800E047
:102C400001B07047C800002081B000211048008802
:102C500000F4005080B218B141F00C01C9B2FFE796
:102C60000B48008800F4804080B218B141F00301A5
:102C7000C9B2FFE70648008800F4004080B220B1E6
:102C800041F03000C1B2C8B200E0C8B201B0704734
:102C9000C400002081B00D48006840F001010B48DD
:102CA000016000210A4801600848016809480140A4
:102CB00006480160084909480160044801686FF44A
:102CC000802001400148016001B070470038024097
:102CD00008380240FFFFF6FE10300024043802409E
:102CE00081B0CDF800E0182213491448FFF750FED8
:102CF00013480221FFF788FD40F6FE07C0F23D07AA
:102D00007F1EFDD100BF00BF00BF00BF00BF01207C
:102D1000FFF732FEB3EE0B0A0320FFF7F1FDB3EE2F
:102D20000C0A0220FFF7ECFD00210020FFF706FE51
:102D3000DDF800E001B0704768350000E8340000BD
:102D400000000020A086010086B0CDF800E04BF224
:102D5000FE37C0F2C44700BF00BF7F1EFDD100BFD9
:102D600000BF00BFFFF764FF80B9FFF7B9FD8DED2D
:102D7000010AFFF769FF9DED010A8DF8170002A80F
:102D8000FFF760FE02A8411D002008709DF81700A3
:102D900000F00C00C0B258B110480121FFF734FD1B
:102DA00002A80121FFF730FD0D480221FFF72CFD9D
:102DB0009DF8170000F00300C0B258B10948012186
:102DC000FFF722FD02A80121FFF71EFD06480221A0
:102DD000FFF71AFDDDF800E006B070471300002091
:102DE00035000020380000205A00002081B01CF877
:102DF000019B0BF8019BBBEB0A0FF8D101B07047A8
:102E000081B0CDF800E0012207210020FFF734FD5A
:102E10000C4801460020FFF7CDFD4EF200110120C5
:102E2000FFF7ECFD40F6FE07C0F23D0700BF00BF14
:102E30007F1EFDD100BF00BF00BFDDF800E001B084
:102E4000704700BF442D000081B04FF000094FF0E3
:102E5000000CBDEB0A0F04DCBDEB0B0F01DBD4460D
:102E6000EA464BF8049BBBEB0A0FFAD1BCEB0A0F06
:102E700005DDE246D9F800B00BF1040BF1E701B033
:102E80007047FFFF81B0FEE701B0704781B04EF69A
:102E90008850CEF20000016841F47001016000BF6B
:102EA00000BF00BF00BFF1EE100A40F44000E1EEA9
:102EB000100A01B07047FFFF81B004490448016067
:102EC00004490548016001B0704700BFC0D401004B
:102ED0008C00002003000000AC00002082B0CDF880
:102EE00000E0924A924B934C93489449032840F057
:102EF0003C809348814206D99248006840F0050121
:102F00009048016030E09048814206D98D480068C1
:102F100040F004018B48016026E08C48814206D9CC
:102F20008848006840F00301864801601CE04EF6C6
:102F30006020814206D98348006840F00201814840
:102F4000016011E047F23050814206D97D480068A7
:102F500040F001017B48016006E07A4801686FF0AB
:102F600007000140774801600CE1022840F04680EC
:102F70007748814206D97348006840F006017148DD
:102F800001603AE07048814206D96E48006840F01E
:102F900005016C48016030E06E48814206D96948FD
:102FA000006840F004016748016026E06A488142F9
:102FB00006D96448006840F00301624801601CE0E3
:102FC0004BF68030814206D95E48006840F002012D
:102FD0005C48016011E045F6C050814206D959486D
:102FE000006840F001015748016006E0554801685B
:102FF0006FF00700014053480160C3E0012840F032
:1030000051805148814206D94E48006840F007017E
:103010004C48016045E05148814206D94948006862
:1030200040F00601474801603BE04848814206D92C
:103030004448006840F005014248016031E04648DC
:10304000814206D93F48006840F004013D480160D4
:1030500027E04DF2F020814206D93A48006840F05E
:103060000301384801601CE048F6A040814206D9BF
:103070003448006840F002013248016011E044F237
:103080005060814206D92F48006840F001012D4868
:10309000016006E02B4801686FF0070001402948F5
:1030A00001606FE0002840F06D802D48814206D914
:1030B0002448006840F007012248016062E025488A
:1030C000814206D91F48006840F006011D48016092
:1030D00058E02448814206D91A48006840F00501AA
:1030E000184801604EE0B1F57A4F06D915480068DE
:1030F00040F004011348016044E04BF68030814207
:1031000006D91048006840F003010E48016039E01C
:10311000B1F5FA4F06D90B48006840F002010948A2
:1031200001602FE0B1F57A5F25D91DE08000010133
:10313000143040050294000003000000C0D40100D8
:10314000F0490200003C0240C0D40100905F010041
:10315000803202000077010040190100E0A5010063
:1031600080B50100803801002D48006840F0010161
:103170002B48016006E02A4801686FF00700014013
:1031800027480160012149B22648016026480160B4
:10319000FFF780FD2548036025480460254802EAC2
:1031A00000012548016002F0010040B1214622489B
:1031B000006800F00200002800D1F8E700E0214696
:1031C00002F4803048B11C48006800F4003000B9B7
:1031D000F9E701920A46019902E001911146019A2C
:1031E00001F0807070B11448006840F0807112489E
:1031F000016011461048006800F0007000B9F9E75E
:103200000A46FFE70A48006800F00C01900000F051
:103210000C00814200D0F5E7DDF800E002B0704715
:10322000003C02402080474224804742043802404C
:1032300008380240FFFF0F000038024081B0FFF75E
:103240004DFEFFF723FE00F0E3F9FFF735FE00F037
:1032500091F9FFF7D5FDFFF743FDFFF775FDFCE79B
:10326000FEE7FFFF3507000036070000FFFFFFFF06
:10327000000000000000000000000000000000004E
:10328000000000000000000000000000000000003E
:1032900000000000000000001810000018100000DE
:1032A000000000000000000000000000000000001E
:1032B000000000000000000000000000000000000E
:1032C00000000000000000000000000000000000FE
:1032D0000804000029040000FFFFFFFF00000000B9
:1032E00000000000000000000000000000000000DE
:1032F00000000000000000000000000000000000CE
:10330000000000002810000028100000000000004D
:1033100000000000000000000000000000000000AD
:10332000000000000000000000000000000000009D
:103330000000000000000000000000001A0400006F
:103340001B040000FFFFFFFF000000000000000062
:10335000000000000000000000000000000000006D
:10336000000000000000000000000000000000005D
:1033700028100000281000000000000000000000DD
:10338000000000000000000000000000000000003D
:10339000000000000000000000000000000000002D
:1033A000000000000000000000080000010800000C
:1033B000FFFFFFFF00000000000000000000000011
:1033C00000000000000000000000000000000000FD
:1033D00000000000000000000000000018100000C5
:1033E00018100000000000000000000000000000B5
:1033F00000000000000000000000000000000000CD
:1034000000000000000000000000000000000000BC
:10341000000000003807000039070000FFFFFFFF31
:10342000000000000000000000000000000000009C
:10343000000000000000000000000000000000008C
:10344000000000000000000018100000181000002C
:10345000000000000000000000000000000000006C
:10346000000000000000000000000000000000005C
:10347000000000000000000000000000000000004C
:1034800053797374656D20696E697469616C697ACA
:1034900065640054656D7065726174757265207540
:1034A0006E64657220746865206C6F77206C696D3E
:1034B00069743A2000B0430054656D7065726174A0
:1034C000757265206F76657220746865206869671B
:1034D00068206C696D69743A2000B043004E614EFB
:1034E000003000494E4600FFBD020000CD02000042
:1034F000DD0200008D0200009D020000AD02000010
:103500001D0300002D0300003D030000ED0200003C
:10351000FD0200000D030000E9270000F92700006C
:10352000D9270000692700007927000049270000FB
:1035300059270000C927000099270000A92700008B
:10354000B9270000892700000000000000000000EB
:103550000000000000000000000000000102030461
:1035600001020304060708091112000031130000CC
:103570000D13000000B5DFF824B0DFF824A0DFF859
:1035800024C0FFF733FCDFF820B0DFF820A0DFF81D
:1035900020C0FFF72BFC00BD704700BF00000020DB
:1035A00067000020803400006800002088000020B0
:1035B00048350000FFFFFFFFFFFFFFFFFFFFFFFF9A
:1035C000FFFFFFFFFFFFFFFFFFFFFFFFFFFFFFFF0B
:1035D000FFFFFFFFFFFFFFFFFFFFFFFFFFFFFFFFFB
:1035E000FFFFFFFFFFFFFFFFFFFFFFFFFFFFFFFFEB
:1035F000FFFFFFFFFFFFFFFFFFFFFFFFFFFFFFFFDB
:10360000FFFFFFFFFFFFFFFFFFFFFFFFFFFFFFFFCA
:1036100000B5DFF810B0DFF810A0FFF715FC00BD13
:10362000704700BF00000020D4000020FFFFFFFF14
:00000001FF
